# 
# $Id:$ 
# 
:100600001201000200000040E4E451110000010268
:1006100003010A0600020000004001000902370041
:1006200002010080320904000002FF0000040705F7
:100630000202000200070586020002000904010010
:1006400002FF0000050705040200020007058802FA
:100650000002000902370002010080320904000094
:1006600002FF0000040705020240000007058602A1
:100670004000000904010002FF0000050705040214
:100680004000000705880240000004030904160327
:1006900058006F00720063006F006D0020004C0076
:1006A0005400440014034100730074007200690098
:1006B000620061006E006B001203490053004E009F
:1006C00075006D006200650072000A03460050006C
:1006D000470041002A034D0061006E006100670081
:1006E00065006D0065006E0074002000500072000F
:1006F0006F0063006500730073006F0072000000FC
:0B0B6C00C2B675B5C4120B18D2B62239
:100A6300E4901010F07A107B107D017F50120A9FE2
:100A73007F501208567A107B007D107F50020A8344
:1008F8007F031209EBEF2402FFE43EFEE516C394E2
:1009080008501F74082516F582E43410F583E0FDBD
:100918008F828E8375F002E5161205E8EDF0051654
:0209280080DA73
:01092A0022AA
:10092B00E50B240AFDE4350AFC901003E02FFF0DC4
:10093B00EDAA0470010C14F5828A83EFF090100479
:10094B00E08D828C83F0D20512099090E680E05402
:02095B00F7F0B3
:01095D002277
:1007000090E600E054E74410F090E60174C0F090E9
:10071000E6107420F000000090E611F00000009058
:10072000E6047480F0000000740FF0000000E4F0B4
:1007300000000090E6187410F0000000E490E61944
:10074000F000000090E61A7408F0000000E490E663
:100750001BF000000090E6497482F0000000F000F9
:10076000000090E6247402F0000000E490E625F01A
:1007700000000090E6957480F0000000F00000009A
:0407800043AF012260
:040B18007F327E00AA
:100B1C007C007D181205D6EF1FAC0670011E4C70C0
:020B2C00F622AF
:0A0784008E188F198B1A8A1B891C2E
:10078E00E4F51DF51EC3E51E9519E51D95185033AC
:10079E00AB1AAA1BA91C851E82851D83120587FF15
:1007AE00E4FEC2B2EF1392B7EFC313FFD2B20EBE86
:1007BE0008F0C2B220B002C322051EE51E70C605A7
:0407CE001D80C2D3F5
:0107D2002204
:10029200E4901010F0F516F517C204E5AA54846034
:1002A200030203F990F400E024FE700302036524C4
:1002B200FA700302038724F870030203B324F07078
:1002C200030203BD24E070030203D824C0700302BA
:1002D20003D8247F60030203CC75160075170490BF
:1002E200FC007401F090F401E090FC01F090F40243
:1002F200E090FC02F090F401E07017A3E07013307C
:10030200B01090E60174C0F0C2B6120B18D2B61249
:100312000B1820B00330B44390E694E0FE90E695CB
:10032200E07C002400FFEC3ECF24FCCF34FFFE7BB8
:10033200017AF47904120784501990FC0330B40D49
:100342007408F07FE87E03120B1C0203D87404F0D9
:100352000203D890FC037402F0807B90FC037401CA
:10036200F0807375160075170490FC007402F0E4B7
:10037200A3F0A3F030B406A37410F0805990FC03EC
:100382007420F0805175160075171190FC007408E6
:10039200F0E4FF74002FF582E43410F583E0FE747C
:1003A200012FF582E434FCF583EEF00FBF10E480F8
:1003B2002590E6017403F07F02800A90E60174C082
:1003C200F0C2B6E4FF12092B800C751600751701F6
:1003D20090FC0074AAF0E51745166012E51690E647
:1003E2009CF0000000E51790E69DF000000090E60A
:0703F200957480F00000008B
:0103F90022E1
:020AFD00D32202
:080B8C0090E6BAE0F528D3223F
:100AEB0090E740E528F0E490E68AF090E68B04F07E
:020AFB00D32204
:080B940090E6BAE0F527D32238
:100B5A0090E740E527F0E490E68AF090E68B04F00F
:020B6A00D32294
:100A160090E6B9E0242F600D04701990E604E0FF1B
:100A2600430780800890E604E0FF53077F0000003C
:070A3600EFF08002D322C3A0
:010A3D002296
:100ABB00C0E0C083C082D2015391EF90E65D740118
:080ACB00F0D082D083D0E032AC
:100B2E00C0E0C083C0825391EF90E65D7404F0D0B4
:060B3E0082D083D0E032FA
:100B4400C0E0C083C0825391EF90E65D7402F0D0A0
:060B540082D083D0E032E4
:10088E00C0E0C083C08285100C85110D850D828558
:10089E000C83A37402F085080E85090F850F8285DF
:1008AE000E83A37407F05391EF90E65D7410F0D0B1
:0608BE0082D083D0E0327D
:100AD300C0E0C083C082D2035391EF90E65D7408F7
:080AE300F0D082D083D0E03294
:10081900C0E0C083C08290E680E030E72085080C04
:1008290085090D850D82850C83A37402F085100E50
:1008390085110F850F82850E83A37407F05391EFFD
:0D08490090E65D7420F0D082D083D0E032C4
:0A0B8200000102020303040405054C
:10050200C203C200C202C201120B6C120700120B1C
:100512009C120A63750A06750B0075120675131292
:1005220075080675091C7510067511537514067544
:10053200158AD2E843D82090E668E04409F090E6B4
:100542005CE0443DF0D2AF1208F87F0112092B5350
:100552008EF8C203120292300105120070C20130FD
:1005620003F2C203120A3E20001690E682E030E750
:1005720004E020E1EF90E682E030E604E020E0E4EF
:050582001209BF80CF4B
:0B0B770090E50DE030E402C322D32221
:1000700090E6B9E0700302012F1470030201A4247A
:10008000FE700302021F24FB700302012914700397
:1000900002012314700302011714700302011D24CE
:1000A00005600302027E120AFD400302028A90E606
:1000B000BBE024FE602714603824FD601114602723
:1000C00024067050E50A90E6B3F0E50B803C120B75
:1000D00077503EE51290E6B3F0E513802DE50C90E5
:1000E000E6B3F0E50D8023E50E90E6B3F0E50F8072
:1000F0001990E6BAE0FF1209EBAA06A9077B01EA0C
:10010000494B600DEE90E6B3F0EF90E6B4F00202DA
:100110008A020279020279120B5A02028A120B94A5
:1001200002028A120B8C02028A120AEB02028A90E5
:10013000E6B8E0247F601514601924027063A20001
:10014000E43325E0FFA202E4334F8041E490E7402E
:10015000F0803F90E6BCE0547EFF7E00E0D39480C8
:100160007C0040047D0180027D00EC4EFEED4F24BA
:1001700082F582740B3EF583E493FF3395E0FEEF46
:1001800024A1FFEE34E68F82F583E0540190E7402E
:10019000F0E4A3F090E68AF090E68B7402F002029D
:1001A0008A02027990E6B8E024FE60162402600319
:1001B00002028A90E6BAE0B40105C20002028A0295
:1001C000027990E6BAE0705590E6BCE0547EFF7E7E
:1001D00000E0D394807C0040047D0180027D00EC2F
:1001E0004EFEED4F2482F582740B3EF583E493FFBF
:1001F0003395E0FEEF24A1FFEE34E68F82F583E035
:1002000054FEF090E6BCE05480131313541FFFE03B
:10021000540F2F90E683F0E04420F0806D805A90D8
:10022000E6B8E024FE60192402704E90E6BAE0B40D
:100230000104D200805490E6BAE06402604C803938
:1002400090E6BCE0547EFF7E00E0D394807C0040CA
:10025000047D0180027D00EC4EFEED4F2482F5828C
:10026000740B3EF583E493FF3395E0FEEF24A1FF8A
:10027000EE34E68F82F583800D90E6A08008120AA6
:1002800016500790E6A0E04401F090E6A0E044801C
:01029000F07D
:01029100224A
:03003300020BA419
:040BA40053D8EF3201
:03004300020B00AD
:03005300020B009D
:100B0000020ABB00020B4400020B2E00020AD300B3
:080B100002088E000208190022
:1009BF0090E682E030E004E020E60B90E682E03043
:1009CF00E119E030E71590E680E04401F07F147EF6
:0C09DF00001207D390E680E054FEF022E6
:1009900030050990E680E0440AF0800790E680E0A8
:1009A0004408F07FDC7E051207D390E65D74FFF00B
:0F09B00090E65FF05391EF90E680E054F7F0226D
:080B9C00E4F526D2E9D2AF22F4
:10085600AD0790E678E020E6F9C2E990E678E04454
:1008660080F0ED25E090E679F090E678E030E0F96A
:1008760090E678E04440F090E678E020E6F990E6ED
:0808860078E030E1D6D2E9224E
:10095E00AC0790E678E020E6F9E526702390E6787D
:10096E00E04480F0EC25E090E679F08D21AF03A90C
:10097E00077522018A238924E4F525752601D322E1
:02098E00C32282
:1008C400AC0790E678E020E6F9E526702590E67816
:1008D400E04480F0EC25E0440190E679F08D21AF0E
:1008E40003A9077522018A238924E4F525752603C3
:0408F400D322C32226
:03004B000203FAB3
:1003FA00C0E0C083C082C085C084C086758600C044
:10040A00D075D000C000C001C002C003C006C0073A
:10041A0090E678E030E2067526060204E490E67873
:10042A00E020E10CE526640260067526070204E472
:10043A00E52624FE605F14603624FE70030204D5AC
:10044A0024FC70030204E1240860030204E4AB22E2
:10045A00AA23A924AF2505258F8275830012058753
:10046A0090E679F0E52565217070752605806B9018
:10047A00E679E0AB22AA23A924AE258E82758300F1
:10048A001205B4752602E5216401704E90E678E003
:10049A004420F08045E52124FEB5250790E678E062
:1004AA004420F0E52114B5250A90E678E04440F0AE
:1004BA0075260090E679E0AB22AA23A924AE258E00
:1004CA00827583001205B40525800F90E678E04412
:1004DA0040F075260080037526005391DFD007D0BF
:1004EA0006D003D002D001D000D0D0D086D084D09C
:0804FA0085D082D083D0E032EE
:0209EB00A9075A
:1009ED00AE14AF158F828E83A3E064037017AD0133
:1009FD0019ED7001228F828E83E07C002FFDEC3E7D
:080A0D00FEAF0580DFE4FEFFEF
:010A150022BE
:100A83001208C4E52624FA600E146006240770F3E6
:0C0A9300D322E4F526D322E4F526D3227A
:100A9F0012095EE52624FA600E146006240770F32F
:0C0AAF00D322E4F526D322E4F526D3225E
:100A3E0090E682E044C0F090E681F043870100002A
:040A4E000000002282
:1007D3008E188F1990E600E054187012E519240161
:1007E300FFE43518C313F518EF13F519801590E6D8
:1007F30000E05418FFBF100BE51925E0F519E518C3
:1008030033F518E5191519AE18700215184E600561
:06081300120A5280EE22E1
:100A52007400F58690FDA57C05A3E582458370F9B7
:010A62002271
:030000000205F402
:0C05F400787FE4F6D8FD7581280205022E
:10058700BB010CE58229F582E5833AF583E0225029
:1005970006E92582F8E622BBFE06E92582F8E22273
:0D05A700E58229F582E5833AF583E493228D
:1005B400F8BB010DE58229F582E5833AF583E8F07D
:1005C400225006E92582C8F622BBFE05E92582C829
:0205D400F22211
:1005D600EF8DF0A4A8F0CF8CF0A428CE8DF0A42E39
:0205E600FE22F3
:0C05E800A42582F582E5F03583F583221E
:00000001FF
